:100000000A128A11D72F00308A000408840A820756
:1000100000344C3431343A344F344E3420342034AC
:100020004C3432343A344F344E342034203420347B
:10003000203400344C3431343A344F344E3420348C
:1000400020344C3432343A344F344634463420343D
:100050002034203400344C3431343A344F34463474
:10006000463420344C3432343A344F3446344634F7
:1000700020342034203400344C3433343A344F3478
:100080004E3420342034463441344E343A344F34E4
:100090004E3420342034203400344C3433343A3459
:1000A0004F34463446342034463441344E343A34A6
:1000B0004F344634463420342034003453344D34E5
:1000C000413452345434203448344F344D34453460
:1000D00020344234593420343934343400344734F1
:1000E00056343A3456344F3420345834553441342D
:0E00F0004E3420345434493445344E340034F8
:100850003F308312031388000800CF308312031344
:1008600088000800C0308312031388000800FF309E
:100870008312031388000800FF30831203138500DE
:10088000080064008001840A040603190034040689
:10089000422C7E088A007F0882000A128A114924AD
:1008A0000A128A118000840A04087D0603190034A4
:1008B000FF0A0319FE0A4D2CF100FD016D2C831275
:1008C00003130715C730F000652CF00B642C682C5F
:1008D000692C0130F0007008FD0771087D02031CCF
:1008E000722C732C5F2C8312031307110800F9007C
:1008F000F8018B2C7808790784000A128A110320EA
:100900000A128A110A128A11BC240A128A110130B1
:10091000F7007708F8077808790784000A128A1127
:1009200003200A128A11003A031D972C982C7A2C66
:100930000800F3007308F10004300310F10CFF3ECF
:10094000031D9D2C7108F2007208F30073080F3923
:10095000F1007108F300831203130608F0398600D2
:10096000060873048600700C031C06120318061692
:100970008612061706130800F6000730F5007D30D2
:10098000F400F40BC12CF50BC12CF001F00A760831
:100990000A128A1199240A128A117608F400033087
:1009A0000310F40DFF3E031DD02C0310740DF50051
:1009B0007508F600F001F00A76080A128A119924E7
:1009C0000A128A110800F6000730F5007D30F400A5
:1009D000F40BE82CF50BE82CF00176080A128A11CA
:1009E00099240A128A117608F40003300310F40DDA
:1009F000FF3E031DF62C0310740DF5007508F6007C
:100A0000C730F400032DF40B022D062D072DF00145
:100A100076080A128A1199240A128A110800FC0029
:100A2000023077020318152D162D3B2D10307C0255
:100A3000031C1B2D1C2D1D2D3B2D77030319212D70
:100A4000222D282D80307C04FA000030FB002D2D53
:100A5000C0307C04FA000030FB007A080A128A11C8
:100A6000E3240A128A110730F9007D30F800F80BF0
:100A7000372DF90B372D08008312031386018316D7
:100A8000031386018312031386171430F80079309C
:100A9000F700F70B492DF80B492D4E2D32300A1275
:100AA0008A11E3240A128A1128300A128A11E324D7
:100AB0000A128A110C300A128A11E3240A128A11CE
:100AC00001300A128A11E3240A128A1106300A122E
:100AD0008A11E3240A128A110800FD0164307D02A4
:100AE000031C732D742D752D892D83120313071C80
:100AF0007A2D7B2D7C2DA62D8501C730F000802D11
:100B0000F00B7F2D832D842D0130F0007008FD0740
:100B10006E2DFD0164307D02031C8F2D902D912DD3
:100B2000A62D83120313071C962D972D982DA62D05
:100B3000FF308500C730F0009D2DF00B9C2DA02DBF
:100B4000A12D0130F0007008FD078A2D0800203427
:100B500020342034203420342034203420342034F5
:100B600020342034203420342034203420342034E5
:100B7000203447345634483444343A3454345334AB
:100B80002E3456344F3420345834553441344E3496
:100B900020345434493445344E3420342034203405
:100BA00020342034203420342034203420342034A5
:100BB00020342034203420342034003400340034F5
:100BC00000340034003420342034203420342034E5
:100BD0002034203420342034203420342034203475
:100BE000203420342034573445344C3443344F348B
:100BF0004D344534203454344F34203453344D3440
:100C0000413452345434203448344F344D34453414
:100C100020344234593420343934343420342034AC
:100C20002034203420342034203420342034203424
:100C300020342034203420342034203400348316EF
:100C40000313071407118713831203130711871364
:100C5000831603138501831203138501831603137F
:100C6000860188018312031388010A128A113C2528
:100C70000A128A11F70100300A128A110F250A128E
:100C80008A1156300A128A1177240A128A11F70142
:100C9000F70A00300A128A110F250A128A116730EA
:100CA0000A128A1177240A128A1183120313071C6D
:100CB0005A2E5B2E552E823083120313B800DD307E
:100CC000B700B70B612EB80B612E83120313B4016A
:100CD000B501C73083120313B7006E2EB70B6D2E0C
:100CE000712E83120313071C762E772E782E8B2EEF
:100CF0000130B4070318B50A0030B50701303502DA
:100D0000903003193402031C862E872E692E071C8F
:100D10008A2E8B2EC22E880185018713B601B60A52
:100D200064300A128A115C240A128A11F701003019
:100D30000A128A110F250A128A1123300A128A1107
:100D400077240A128A11F701F70A00300A128A1171
:100D50000F250A128A1145300A128A1177240A12C5
:100D60008A11823083120313B800DD30B700B70B4D
:100D7000B72EB80BB72E83120313071CC02EC12E3B
:100D8000BB2E552E0718C52EC62EC22E3603031DA8
:100D9000CA2ECB2E092F0718CE2ECF2E092F643046
:100DA0000A128A115C240A128A1102308312031378
:100DB000B7003708B6008713F70100300A128A110E
:100DC0000F250A128A1101300A128A1177240A1299
:100DD0008A11F701F70A00300A128A110F250A1248
:100DE0008A1145300A128A1177240A128A11022FB9
:100DF0000A128A1128240A128A110A128A113C2422
:100E00000A128A1183120313071C072F082FF82ECA
:100E1000552E02303606031D0E2F0F2F4D2F0718AB
:100E2000122F132F4D2F64300A128A115C240A12DC
:100E30008A11033083120313B7003708B6008717EF
:100E4000F70100300A128A110F250A128A11123096
:100E50000A128A1177240A128A11F701F70A003060
:100E60000A128A110F250A128A1134300A128A11C5
:100E700077240A128A11462F0A128A112D240A1287
:100E80008A110A128A116D250A128A11831203131C
:100E9000071C4B2F4C2F3C2F552E03303606031DBD
:100EA000522F532F912F0718562F572F912F643001
:100EB0000A128A115C240A128A1104308312031365
:100EC000B7003708B6008717F70100300A128A11F9
:100ED0000F250A128A1123300A128A1177240A1266
:100EE0008A11F701F70A00300A128A110F250A1237
:100EF0008A1134300A128A1177240A128A118A2F31
:100F00000A128A1132240A128A110A128A113C2406
:100F10000A128A1183120313071C8F2F902F802F20
:100F2000552E04303606031D962F972FD32F071802
:100F30009A2F9B2FD32F64300A128A115C240A1235
:100F40008A1183120313B601B60A8717F70100301E
:100F50000A128A110F250A128A1101300A128A1107
:100F600077240A128A11F701F70A00300A128A114F
:100F70000F250A128A1134300A128A1177240A12B4
:100F80008A11CC2F0A128A1137240A128A110A12E6
:100F90008A116D250A128A1183120313071CD12F9F
:100FA000D22FC22F552E552E0A128A1100288317D0
:100FB000CC30FD000530FE00A730FF0090308400EB
:100FC0000A128A114D240A128A118313DC30FD00A3
:100FD0000530FE00E330FF00A03084000A128A11C1
:100FE0004D240A128A112030840037300A128A11E7
:100FF00041240A128A11FD0183010A128A111F2E4F
:08400000FF3FFF3FFF3FFF3FC0
:02400E003A3F37
:00000001FF
